:100000000C942A000C9434000C9434000C943400AA
:100010000C9434000C9434000C9434000C94340090
:100020000C9434000C9434000C9434000C94340080
:100030000C9434000C9434000C9434000C94340070
:100040000C9434000C9434000C9434000C94340060
:100050000C94340011241FBECFE5D8E0DEBFCDBF25
:100060000E9436000C9482000C94000081E090E025
:100070000E94500081E090E00E94500081E090E0FA
:100080000E945000F3CF93B7892383BF62BF0895C6
:1000900093B7892B83BF089582BF089513BE089537
:1000A0000F931F93CF93DF938C0165E287EB0E9440
:1000B000430081E00E94480001151105B9F41BC0FE
:1000C00008B600FEFDCF88B7816088BF9F5F01C082
:1000D00090E09330A8F38BE30E944C0008B600FE3A
:1000E000FDCF88B7816088BF219602C0C0E0D0E014
:1000F000C017D10768F30E944E00DF91CF911F9186
:080100000F910895F894FFCF60
:00000001FF
