S0200000666F75722D64726976696E675F776865656C5F726F626F742E737265632F
S11300000C942A000C9434000C9434000C943400A6
S11300100C9434000C9434000C9434000C9434008C
S11300200C9434000C9434000C9434000C9434007C
S11300300C9434000C9434000C9434000C9434006C
S11300400C9434000C9434000C9434000C9434005C
S11300500C94340011241FBECFE5D8E0DEBFCDBF21
S11300600E9436000C9482000C94000081E090E021
S11300700E94540081E090E00E94540088EE93E0D6
S11300800E94540088EE93E00E945400EFCF93B78F
S1130090892383BF62BF089593B7892B83BF0895D3
S11300A082BF089513BE08950F931F93CF93DF93D8
S11300B08C0166E487EB0E94470081E00E944C00BB
S11300C0C0E0D0E015C008B600FEFDCF88B781605F
S11300D088BF9F5F01C090E09330A8F38AE20E943A
S11300E0500008B600FEFDCF88B7816088BF219616
S11300F0C017D10780F30E945200DF91CF911F9166
S10B01000F910895F894FFCF5C
S9030000FC
